{"abi":[{"type":"constructor","inputs":[],"stateMutability":"nonpayable"},{"type":"function","name":"agent","inputs":[],"outputs":[{"name":"","type":"address","internalType":"address"}],"stateMutability":"view"},{"type":"function","name":"completeEscrow","inputs":[{"name":"escrowId","type":"uint256","internalType":"uint256"}],"outputs":[],"stateMutability":"nonpayable"},{"type":"function","name":"createEscrow","inputs":[{"name":"seller","type":"address","internalType":"address"}],"outputs":[{"name":"","type":"uint256","internalType":"uint256"}],"stateMutability":"payable"},{"type":"function","name":"disputeEscrow","inputs":[{"name":"escrowId","type":"uint256","internalType":"uint256"}],"outputs":[],"stateMutability":"nonpayable"},{"type":"function","name":"escrowCount","inputs":[],"outputs":[{"name":"","type":"uint256","internalType":"uint256"}],"stateMutability":"view"},{"type":"function","name":"escrows","inputs":[{"name":"","type":"uint256","internalType":"uint256"}],"outputs":[{"name":"buyer","type":"address","internalType":"address"},{"name":"seller","type":"address","internalType":"address"},{"name":"amount","type":"uint256","internalType":"uint256"},{"name":"status","type":"uint8","internalType":"enum EscrowAgent.EscrowStatus"},{"name":"createdAt","type":"uint256","internalType":"uint256"}],"stateMutability":"view"},{"type":"function","name":"getEscrow","inputs":[{"name":"escrowId","type":"uint256","internalType":"uint256"}],"outputs":[{"name":"","type":"tuple","internalType":"struct EscrowAgent.Escrow","components":[{"name":"buyer","type":"address","internalType":"address"},{"name":"seller","type":"address","internalType":"address"},{"name":"amount","type":"uint256","internalType":"uint256"},{"name":"status","type":"uint8","internalType":"enum EscrowAgent.EscrowStatus"},{"name":"createdAt","type":"uint256","internalType":"uint256"}]}],"stateMutability":"view"},{"type":"function","name":"refundEscrow","inputs":[{"name":"escrowId","type":"uint256","internalType":"uint256"}],"outputs":[],"stateMutability":"nonpayable"},{"type":"event","name":"EscrowCompleted","inputs":[{"name":"escrowId","type":"uint256","indexed":true,"internalType":"uint256"}],"anonymous":false},{"type":"event","name":"EscrowCreated","inputs":[{"name":"escrowId","type":"uint256","indexed":true,"internalType":"uint256"},{"name":"buyer","type":"address","indexed":true,"internalType":"address"},{"name":"seller","type":"address","indexed":true,"internalType":"address"},{"name":"amount","type":"uint256","indexed":false,"internalType":"uint256"}],"anonymous":false},{"type":"event","name":"EscrowDisputed","inputs":[{"name":"escrowId","type":"uint256","indexed":true,"internalType":"uint256"}],"anonymous":false},{"type":"event","name":"EscrowRefunded","inputs":[{"name":"escrowId","type":"uint256","indexed":true,"internalType":"uint256"}],"anonymous":false}],"bytecode":{"object":"0x6080604052348015600e575f5ffd5b503360025f6101000a81548173ffffffffffffffffffffffffffffffffffffffff021916908373ffffffffffffffffffffffffffffffffffffffff1602179055506111528061005c5f395ff3fe60806040526004361061007a575f3560e01c8063b563153c1161004d578063b563153c1461014c578063df3e0a1d14610174578063f5ff5c761461019c578063f6a8419e146101c65761007a565b8063012f52ee1461007e578063356f9dfd146100be578063675ac67a146100e65780637d19e59614610110575b5f5ffd5b348015610089575f5ffd5b506100a4600480360381019061009f9190610c20565b6101f6565b6040516100b5959493929190610d0c565b60405180910390f35b3480156100c9575f5ffd5b506100e460048036038101906100df9190610c20565b610271565b005b3480156100f1575f5ffd5b506100fa610450565b6040516101079190610d5d565b60405180910390f35b34801561011b575f5ffd5b5061013660048036038101906101319190610c20565b610456565b6040516101439190610e09565b60405180910390f35b348015610157575f5ffd5b50610172600480360381019061016d9190610c20565b610577565b005b34801561017f575f5ffd5b5061019a60048036038101906101959190610c20565b6106fe565b005b3480156101a7575f5ffd5b506101b06108de565b6040516101bd9190610e22565b60405180910390f35b6101e060048036038101906101db9190610e65565b610903565b6040516101ed9190610d5d565b60405180910390f35b5f602052805f5260405f205f91509050805f015f9054906101000a900473ffffffffffffffffffffffffffffffffffffffff1690806001015f9054906101000a900473ffffffffffffffffffffffffffffffffffffffff1690806002015490806003015f9054906101000a900460ff16908060040154905085565b60025f9054906101000a900473ffffffffffffffffffffffffffffffffffffffff1673ffffffffffffffffffffffffffffffffffffffff163373ffffffffffffffffffffffffffffffffffffffff1614610300576040517f08c379a00000000000000000000000000000000000000000000000000000000081526004016102f790610eea565b60405180910390fd5b5f5f5f8381526020019081526020015f2090505f600381111561032657610325610c99565b5b816003015f9054906101000a900460ff16600381111561034957610348610c99565b5b14610389576040517f08c379a000000000000000000000000000000000000000000000000000000000815260040161038090610f52565b60405180910390fd5b6002816003015f6101000a81548160ff021916908360038111156103b0576103af610c99565b5b0217905550805f015f9054906101000a900473ffffffffffffffffffffffffffffffffffffffff1673ffffffffffffffffffffffffffffffffffffffff166108fc826002015490811502906040515f60405180830381858888f1935050505015801561041e573d5f5f3e3d5ffd5b50817f2babb5cd458b6d41108d6d793a75e29ca524e7caa20e2da6c994462010920a7260405160405180910390a25050565b60015481565b61045e610b81565b5f5f8381526020019081526020015f206040518060a00160405290815f82015f9054906101000a900473ffffffffffffffffffffffffffffffffffffffff1673ffffffffffffffffffffffffffffffffffffffff1673ffffffffffffffffffffffffffffffffffffffff168152602001600182015f9054906101000a900473ffffffffffffffffffffffffffffffffffffffff1673ffffffffffffffffffffffffffffffffffffffff1673ffffffffffffffffffffffffffffffffffffffff16815260200160028201548152602001600382015f9054906101000a900460ff1660038111156105505761054f610c99565b5b600381111561056257610561610c99565b5b81526020016004820154815250509050919050565b805f5f8281526020019081526020015f205f015f9054906101000a900473ffffffffffffffffffffffffffffffffffffffff1673ffffffffffffffffffffffffffffffffffffffff163373ffffffffffffffffffffffffffffffffffffffff1614610617576040517f08c379a000000000000000000000000000000000000000000000000000000000815260040161060e90610fba565b60405180910390fd5b5f5f5f8481526020019081526020015f2090505f600381111561063d5761063c610c99565b5b816003015f9054906101000a900460ff1660038111156106605761065f610c99565b5b146106a0576040517f08c379a000000000000000000000000000000000000000000000000000000000815260040161069790610f52565b60405180910390fd5b6003816003015f6101000a81548160ff021916908360038111156106c7576106c6610c99565b5b0217905550827f7ce7831fed9a800b1aa5e7ca21034bf7b95efc31a196459012cf8b8eb42b7dac60405160405180910390a2505050565b60025f9054906101000a900473ffffffffffffffffffffffffffffffffffffffff1673ffffffffffffffffffffffffffffffffffffffff163373ffffffffffffffffffffffffffffffffffffffff161461078d576040517f08c379a000000000000000000000000000000000000000000000000000000000815260040161078490610eea565b60405180910390fd5b5f5f5f8381526020019081526020015f2090505f60038111156107b3576107b2610c99565b5b816003015f9054906101000a900460ff1660038111156107d6576107d5610c99565b5b14610816576040517f08c379a000000000000000000000000000000000000000000000000000000000815260040161080d90610f52565b60405180910390fd5b6001816003015f6101000a81548160ff0219169083600381111561083d5761083c610c99565b5b0217905550806001015f9054906101000a900473ffffffffffffffffffffffffffffffffffffffff1673ffffffffffffffffffffffffffffffffffffffff166108fc826002015490811502906040515f60405180830381858888f193505050501580156108ac573d5f5f3e3d5ffd5b50817f9285bd636dda01bef18996aa38303bb742f6c67a6941646dddb17630cb492c2e60405160405180910390a25050565b60025f9054906101000a900473ffffffffffffffffffffffffffffffffffffffff1681565b5f5f3411610946576040517f08c379a000000000000000000000000000000000000000000000000000000000815260040161093d90611022565b60405180910390fd5b5f73ffffffffffffffffffffffffffffffffffffffff168273ffffffffffffffffffffffffffffffffffffffff16036109b4576040517f08c379a00000000000000000000000000000000000000000000000000000000081526004016109ab9061108a565b60405180910390fd5b5f60015f8154809291906109c7906110d5565b9190505590506040518060a001604052803373ffffffffffffffffffffffffffffffffffffffff1681526020018473ffffffffffffffffffffffffffffffffffffffff1681526020013481526020015f6003811115610a2957610a28610c99565b5b8152602001428152505f5f8381526020019081526020015f205f820151815f015f6101000a81548173ffffffffffffffffffffffffffffffffffffffff021916908373ffffffffffffffffffffffffffffffffffffffff1602179055506020820151816001015f6101000a81548173ffffffffffffffffffffffffffffffffffffffff021916908373ffffffffffffffffffffffffffffffffffffffff160217905550604082015181600201556060820151816003015f6101000a81548160ff02191690836003811115610b0057610aff610c99565b5b0217905550608082015181600401559050508273ffffffffffffffffffffffffffffffffffffffff163373ffffffffffffffffffffffffffffffffffffffff16827f9405ad0a6208539879349284d71265479b1623846f70303da1f9890d6e8c10a734604051610b709190610d5d565b60405180910390a480915050919050565b6040518060a001604052805f73ffffffffffffffffffffffffffffffffffffffff1681526020015f73ffffffffffffffffffffffffffffffffffffffff1681526020015f81526020015f6003811115610bdd57610bdc610c99565b5b81526020015f81525090565b5f5ffd5b5f819050919050565b610bff81610bed565b8114610c09575f5ffd5b50565b5f81359050610c1a81610bf6565b92915050565b5f60208284031215610c3557610c34610be9565b5b5f610c4284828501610c0c565b91505092915050565b5f73ffffffffffffffffffffffffffffffffffffffff82169050919050565b5f610c7482610c4b565b9050919050565b610c8481610c6a565b82525050565b610c9381610bed565b82525050565b7f4e487b71000000000000000000000000000000000000000000000000000000005f52602160045260245ffd5b60048110610cd757610cd6610c99565b5b50565b5f819050610ce782610cc6565b919050565b5f610cf682610cda565b9050919050565b610d0681610cec565b82525050565b5f60a082019050610d1f5f830188610c7b565b610d2c6020830187610c7b565b610d396040830186610c8a565b610d466060830185610cfd565b610d536080830184610c8a565b9695505050505050565b5f602082019050610d705f830184610c8a565b92915050565b610d7f81610c6a565b82525050565b610d8e81610bed565b82525050565b610d9d81610cec565b82525050565b60a082015f820151610db75f850182610d76565b506020820151610dca6020850182610d76565b506040820151610ddd6040850182610d85565b506060820151610df06060850182610d94565b506080820151610e036080850182610d85565b50505050565b5f60a082019050610e1c5f830184610da3565b92915050565b5f602082019050610e355f830184610c7b565b92915050565b610e4481610c6a565b8114610e4e575f5ffd5b50565b5f81359050610e5f81610e3b565b92915050565b5f60208284031215610e7a57610e79610be9565b5b5f610e8784828501610e51565b91505092915050565b5f82825260208201905092915050565b7f4f6e6c79206167656e74000000000000000000000000000000000000000000005f82015250565b5f610ed4600a83610e90565b9150610edf82610ea0565b602082019050919050565b5f6020820190508181035f830152610f0181610ec8565b9050919050565b7f496e76616c6964207374617475730000000000000000000000000000000000005f82015250565b5f610f3c600e83610e90565b9150610f4782610f08565b602082019050919050565b5f6020820190508181035f830152610f6981610f30565b9050919050565b7f4f6e6c79206275796572000000000000000000000000000000000000000000005f82015250565b5f610fa4600a83610e90565b9150610faf82610f70565b602082019050919050565b5f6020820190508181035f830152610fd181610f98565b9050919050565b7f416d6f756e74206d757374206265203e203000000000000000000000000000005f82015250565b5f61100c601283610e90565b915061101782610fd8565b602082019050919050565b5f6020820190508181035f83015261103981611000565b9050919050565b7f496e76616c69642073656c6c65720000000000000000000000000000000000005f82015250565b5f611074600e83610e90565b915061107f82611040565b602082019050919050565b5f6020820190508181035f8301526110a181611068565b9050919050565b7f4e487b71000000000000000000000000000000000000000000000000000000005f52601160045260245ffd5b5f6110df82610bed565b91507fffffffffffffffffffffffffffffffffffffffffffffffffffffffffffffffff8203611111576111106110a8565b5b60018201905091905056fea2646970667358221220a4ee5ffb76b1ae0373df4db182e3486c90ab97a6234511ec5d0609d941e71f9d64736f6c63430008210033","linkReferences":{}},"methodIdentifiers":{"agent()":"f5ff5c76","completeEscrow(uint256)":"df3e0a1d","createEscrow(address)":"f6a8419e","disputeEscrow(uint256)":"b563153c","escrowCount()":"675ac67a","escrows(uint256)":"012f52ee","getEscrow(uint256)":"7d19e596","refundEscrow(uint256)":"356f9dfd"},"id":20}